{
  "_format": "hh-sol-artifact-1",
  "contractName": "MyToken",
  "sourceName": "contracts/sender_nft.sol",
  "abi": [
    {
      "inputs": [
        {
          "internalType": "address",
          "name": "initialOwner",
          "type": "address"
        }
      ],
      "stateMutability": "nonpayable",
      "type": "constructor"
    },
    {
      "inputs": [
        {
          "internalType": "address",
          "name": "sender",
          "type": "address"
        },
        {
          "internalType": "uint256",
          "name": "tokenId",
          "type": "uint256"
        },
        {
          "internalType": "address",
          "name": "owner",
          "type": "address"
        }
      ],
      "name": "ERC721IncorrectOwner",
      "type": "error"
    },
    {
      "inputs": [
        {
          "internalType": "address",
          "name": "operator",
          "type": "address"
        },
        {
          "internalType": "uint256",
          "name": "tokenId",
          "type": "uint256"
        }
      ],
      "name": "ERC721InsufficientApproval",
      "type": "error"
    },
    {
      "inputs": [
        {
          "internalType": "address",
          "name": "approver",
          "type": "address"
        }
      ],
      "name": "ERC721InvalidApprover",
      "type": "error"
    },
    {
      "inputs": [
        {
          "internalType": "address",
          "name": "operator",
          "type": "address"
        }
      ],
      "name": "ERC721InvalidOperator",
      "type": "error"
    },
    {
      "inputs": [
        {
          "internalType": "address",
          "name": "owner",
          "type": "address"
        }
      ],
      "name": "ERC721InvalidOwner",
      "type": "error"
    },
    {
      "inputs": [
        {
          "internalType": "address",
          "name": "receiver",
          "type": "address"
        }
      ],
      "name": "ERC721InvalidReceiver",
      "type": "error"
    },
    {
      "inputs": [
        {
          "internalType": "address",
          "name": "sender",
          "type": "address"
        }
      ],
      "name": "ERC721InvalidSender",
      "type": "error"
    },
    {
      "inputs": [
        {
          "internalType": "uint256",
          "name": "tokenId",
          "type": "uint256"
        }
      ],
      "name": "ERC721NonexistentToken",
      "type": "error"
    },
    {
      "inputs": [
        {
          "internalType": "address",
          "name": "owner",
          "type": "address"
        }
      ],
      "name": "OwnableInvalidOwner",
      "type": "error"
    },
    {
      "inputs": [
        {
          "internalType": "address",
          "name": "account",
          "type": "address"
        }
      ],
      "name": "OwnableUnauthorizedAccount",
      "type": "error"
    },
    {
      "anonymous": false,
      "inputs": [
        {
          "indexed": true,
          "internalType": "address",
          "name": "owner",
          "type": "address"
        },
        {
          "indexed": true,
          "internalType": "address",
          "name": "approved",
          "type": "address"
        },
        {
          "indexed": true,
          "internalType": "uint256",
          "name": "tokenId",
          "type": "uint256"
        }
      ],
      "name": "Approval",
      "type": "event"
    },
    {
      "anonymous": false,
      "inputs": [
        {
          "indexed": true,
          "internalType": "address",
          "name": "owner",
          "type": "address"
        },
        {
          "indexed": true,
          "internalType": "address",
          "name": "operator",
          "type": "address"
        },
        {
          "indexed": false,
          "internalType": "bool",
          "name": "approved",
          "type": "bool"
        }
      ],
      "name": "ApprovalForAll",
      "type": "event"
    },
    {
      "anonymous": false,
      "inputs": [
        {
          "indexed": false,
          "internalType": "uint256",
          "name": "_fromTokenId",
          "type": "uint256"
        },
        {
          "indexed": false,
          "internalType": "uint256",
          "name": "_toTokenId",
          "type": "uint256"
        }
      ],
      "name": "BatchMetadataUpdate",
      "type": "event"
    },
    {
      "anonymous": false,
      "inputs": [
        {
          "indexed": false,
          "internalType": "uint256",
          "name": "_tokenId",
          "type": "uint256"
        }
      ],
      "name": "MetadataUpdate",
      "type": "event"
    },
    {
      "anonymous": false,
      "inputs": [
        {
          "indexed": true,
          "internalType": "address",
          "name": "previousOwner",
          "type": "address"
        },
        {
          "indexed": true,
          "internalType": "address",
          "name": "newOwner",
          "type": "address"
        }
      ],
      "name": "OwnershipTransferred",
      "type": "event"
    },
    {
      "anonymous": false,
      "inputs": [
        {
          "indexed": true,
          "internalType": "address",
          "name": "from",
          "type": "address"
        },
        {
          "indexed": true,
          "internalType": "address",
          "name": "to",
          "type": "address"
        },
        {
          "indexed": true,
          "internalType": "uint256",
          "name": "tokenId",
          "type": "uint256"
        }
      ],
      "name": "Transfer",
      "type": "event"
    },
    {
      "inputs": [
        {
          "internalType": "address",
          "name": "to",
          "type": "address"
        },
        {
          "internalType": "uint256",
          "name": "tokenId",
          "type": "uint256"
        }
      ],
      "name": "approve",
      "outputs": [],
      "stateMutability": "nonpayable",
      "type": "function"
    },
    {
      "inputs": [
        {
          "internalType": "address",
          "name": "owner",
          "type": "address"
        }
      ],
      "name": "balanceOf",
      "outputs": [
        {
          "internalType": "uint256",
          "name": "",
          "type": "uint256"
        }
      ],
      "stateMutability": "view",
      "type": "function"
    },
    {
      "inputs": [
        {
          "internalType": "uint256",
          "name": "tokenId",
          "type": "uint256"
        }
      ],
      "name": "burn",
      "outputs": [],
      "stateMutability": "nonpayable",
      "type": "function"
    },
    {
      "inputs": [
        {
          "internalType": "uint256",
          "name": "tokenId",
          "type": "uint256"
        }
      ],
      "name": "getApproved",
      "outputs": [
        {
          "internalType": "address",
          "name": "",
          "type": "address"
        }
      ],
      "stateMutability": "view",
      "type": "function"
    },
    {
      "inputs": [
        {
          "internalType": "address",
          "name": "owner",
          "type": "address"
        },
        {
          "internalType": "address",
          "name": "operator",
          "type": "address"
        }
      ],
      "name": "isApprovedForAll",
      "outputs": [
        {
          "internalType": "bool",
          "name": "",
          "type": "bool"
        }
      ],
      "stateMutability": "view",
      "type": "function"
    },
    {
      "inputs": [],
      "name": "name",
      "outputs": [
        {
          "internalType": "string",
          "name": "",
          "type": "string"
        }
      ],
      "stateMutability": "view",
      "type": "function"
    },
    {
      "inputs": [],
      "name": "owner",
      "outputs": [
        {
          "internalType": "address",
          "name": "",
          "type": "address"
        }
      ],
      "stateMutability": "view",
      "type": "function"
    },
    {
      "inputs": [
        {
          "internalType": "uint256",
          "name": "tokenId",
          "type": "uint256"
        }
      ],
      "name": "ownerOf",
      "outputs": [
        {
          "internalType": "address",
          "name": "",
          "type": "address"
        }
      ],
      "stateMutability": "view",
      "type": "function"
    },
    {
      "inputs": [],
      "name": "renounceOwnership",
      "outputs": [],
      "stateMutability": "nonpayable",
      "type": "function"
    },
    {
      "inputs": [
        {
          "internalType": "address",
          "name": "to",
          "type": "address"
        },
        {
          "internalType": "string",
          "name": "uri",
          "type": "string"
        }
      ],
      "name": "safeMint",
      "outputs": [],
      "stateMutability": "payable",
      "type": "function"
    },
    {
      "inputs": [
        {
          "internalType": "address",
          "name": "from",
          "type": "address"
        },
        {
          "internalType": "address",
          "name": "to",
          "type": "address"
        },
        {
          "internalType": "uint256",
          "name": "tokenId",
          "type": "uint256"
        }
      ],
      "name": "safeTransferFrom",
      "outputs": [],
      "stateMutability": "nonpayable",
      "type": "function"
    },
    {
      "inputs": [
        {
          "internalType": "address",
          "name": "from",
          "type": "address"
        },
        {
          "internalType": "address",
          "name": "to",
          "type": "address"
        },
        {
          "internalType": "uint256",
          "name": "tokenId",
          "type": "uint256"
        },
        {
          "internalType": "bytes",
          "name": "data",
          "type": "bytes"
        }
      ],
      "name": "safeTransferFrom",
      "outputs": [],
      "stateMutability": "nonpayable",
      "type": "function"
    },
    {
      "inputs": [
        {
          "internalType": "address",
          "name": "operator",
          "type": "address"
        },
        {
          "internalType": "bool",
          "name": "approved",
          "type": "bool"
        }
      ],
      "name": "setApprovalForAll",
      "outputs": [],
      "stateMutability": "nonpayable",
      "type": "function"
    },
    {
      "inputs": [
        {
          "internalType": "bytes4",
          "name": "interfaceId",
          "type": "bytes4"
        }
      ],
      "name": "supportsInterface",
      "outputs": [
        {
          "internalType": "bool",
          "name": "",
          "type": "bool"
        }
      ],
      "stateMutability": "view",
      "type": "function"
    },
    {
      "inputs": [],
      "name": "symbol",
      "outputs": [
        {
          "internalType": "string",
          "name": "",
          "type": "string"
        }
      ],
      "stateMutability": "view",
      "type": "function"
    },
    {
      "inputs": [],
      "name": "tokenCount",
      "outputs": [
        {
          "internalType": "uint256",
          "name": "",
          "type": "uint256"
        }
      ],
      "stateMutability": "view",
      "type": "function"
    },
    {
      "inputs": [
        {
          "internalType": "uint256",
          "name": "tokenId",
          "type": "uint256"
        }
      ],
      "name": "tokenSender",
      "outputs": [
        {
          "internalType": "address",
          "name": "",
          "type": "address"
        }
      ],
      "stateMutability": "view",
      "type": "function"
    },
    {
      "inputs": [
        {
          "internalType": "uint256",
          "name": "tokenId",
          "type": "uint256"
        }
      ],
      "name": "tokenURI",
      "outputs": [
        {
          "internalType": "string",
          "name": "",
          "type": "string"
        }
      ],
      "stateMutability": "view",
      "type": "function"
    },
    {
      "inputs": [
        {
          "internalType": "address",
          "name": "from",
          "type": "address"
        },
        {
          "internalType": "address",
          "name": "to",
          "type": "address"
        },
        {
          "internalType": "uint256",
          "name": "tokenId",
          "type": "uint256"
        }
      ],
      "name": "transferFrom",
      "outputs": [],
      "stateMutability": "nonpayable",
      "type": "function"
    },
    {
      "inputs": [
        {
          "internalType": "address",
          "name": "newOwner",
          "type": "address"
        }
      ],
      "name": "transferOwnership",
      "outputs": [],
      "stateMutability": "nonpayable",
      "type": "function"
    },
    {
      "inputs": [],
      "name": "withdraw",
      "outputs": [],
      "stateMutability": "nonpayable",
      "type": "function"
    }
  ],
  "bytecode": "0x608060405260006008553480156200001657600080fd5b5060405162002fa638038062002fa683398181016040528101906200003c91906200028d565b806040518060400160405280600a81526020017f43565665726966696564000000000000000000000000000000000000000000008152506040518060400160405280600381526020017f43565600000000000000000000000000000000000000000000000000000000008152508160009081620000ba919062000539565b508060019081620000cc919062000539565b505050600073ffffffffffffffffffffffffffffffffffffffff168173ffffffffffffffffffffffffffffffffffffffff1603620001445760006040517f1e4fbdf70000000000000000000000000000000000000000000000000000000081526004016200013b919062000631565b60405180910390fd5b62000155816200015d60201b60201c565b50506200064e565b6000600760009054906101000a900473ffffffffffffffffffffffffffffffffffffffff16905081600760006101000a81548173ffffffffffffffffffffffffffffffffffffffff021916908373ffffffffffffffffffffffffffffffffffffffff1602179055508173ffffffffffffffffffffffffffffffffffffffff168173ffffffffffffffffffffffffffffffffffffffff167f8be0079c531659141344cd1fd0a4f28419497f9722a3daafe3b4186f6b6457e060405160405180910390a35050565b600080fd5b600073ffffffffffffffffffffffffffffffffffffffff82169050919050565b6000620002558262000228565b9050919050565b620002678162000248565b81146200027357600080fd5b50565b60008151905062000287816200025c565b92915050565b600060208284031215620002a657620002a562000223565b5b6000620002b68482850162000276565b91505092915050565b600081519050919050565b7f4e487b7100000000000000000000000000000000000000000000000000000000600052604160045260246000fd5b7f4e487b7100000000000000000000000000000000000000000000000000000000600052602260045260246000fd5b600060028204905060018216806200034157607f821691505b602082108103620003575762000356620002f9565b5b50919050565b60008190508160005260206000209050919050565b60006020601f8301049050919050565b600082821b905092915050565b600060088302620003c17fffffffffffffffffffffffffffffffffffffffffffffffffffffffffffffffff8262000382565b620003cd868362000382565b95508019841693508086168417925050509392505050565b6000819050919050565b6000819050919050565b60006200041a620004146200040e84620003e5565b620003ef565b620003e5565b9050919050565b6000819050919050565b6200043683620003f9565b6200044e620004458262000421565b8484546200038f565b825550505050565b600090565b6200046562000456565b620004728184846200042b565b505050565b5b818110156200049a576200048e6000826200045b565b60018101905062000478565b5050565b601f821115620004e957620004b3816200035d565b620004be8462000372565b81016020851015620004ce578190505b620004e6620004dd8562000372565b83018262000477565b50505b505050565b600082821c905092915050565b60006200050e60001984600802620004ee565b1980831691505092915050565b6000620005298383620004fb565b9150826002028217905092915050565b6200054482620002bf565b67ffffffffffffffff81111562000560576200055f620002ca565b5b6200056c825462000328565b620005798282856200049e565b600060209050601f831160018114620005b157600084156200059c578287015190505b620005a885826200051b565b86555062000618565b601f198416620005c1866200035d565b60005b82811015620005eb57848901518255600182019150602085019450602081019050620005c4565b868310156200060b578489015162000607601f891682620004fb565b8355505b6001600288020188555050505b505050505050565b6200062b8162000248565b82525050565b600060208201905062000648600083018462000620565b92915050565b612948806200065e6000396000f3fe60806040526004361061012a5760003560e01c8063715018a6116100ab578063a22cb4651161006f578063a22cb465146103de578063b88d4fde14610407578063c87b56dd14610430578063d204c45e1461046d578063e985e9c514610489578063f2fde38b146104c65761012a565b8063715018a6146103095780638da5cb5b1461032057806395d89b411461034b5780639f181b5e146103765780639fcd2106146103a15761012a565b80633ccfd60b116100f25780633ccfd60b1461022657806342842e0e1461023d57806342966c68146102665780636352211e1461028f57806370a08231146102cc5761012a565b806301ffc9a71461012f57806306fdde031461016c578063081812fc14610197578063095ea7b3146101d457806323b872dd146101fd575b600080fd5b34801561013b57600080fd5b5061015660048036038101906101519190611db4565b6104ef565b6040516101639190611dfc565b60405180910390f35b34801561017857600080fd5b50610181610501565b60405161018e9190611ea7565b60405180910390f35b3480156101a357600080fd5b506101be60048036038101906101b99190611eff565b610593565b6040516101cb9190611f6d565b60405180910390f35b3480156101e057600080fd5b506101fb60048036038101906101f69190611fb4565b6105af565b005b34801561020957600080fd5b50610224600480360381019061021f9190611ff4565b6105c5565b005b34801561023257600080fd5b5061023b6106c7565b005b34801561024957600080fd5b50610264600480360381019061025f9190611ff4565b61071f565b005b34801561027257600080fd5b5061028d60048036038101906102889190611eff565b61073f565b005b34801561029b57600080fd5b506102b660048036038101906102b19190611eff565b610756565b6040516102c39190611f6d565b60405180910390f35b3480156102d857600080fd5b506102f360048036038101906102ee9190612047565b610768565b6040516103009190612083565b60405180910390f35b34801561031557600080fd5b5061031e610822565b005b34801561032c57600080fd5b50610335610836565b6040516103429190611f6d565b60405180910390f35b34801561035757600080fd5b50610360610860565b60405161036d9190611ea7565b60405180910390f35b34801561038257600080fd5b5061038b6108f2565b6040516103989190612083565b60405180910390f35b3480156103ad57600080fd5b506103c860048036038101906103c39190611eff565b6108f8565b6040516103d59190611f6d565b60405180910390f35b3480156103ea57600080fd5b50610405600480360381019061040091906120ca565b610935565b005b34801561041357600080fd5b5061042e6004803603810190610429919061223f565b61094b565b005b34801561043c57600080fd5b5061045760048036038101906104529190611eff565b610968565b6040516104649190611ea7565b60405180910390f35b61048760048036038101906104829190612363565b61097a565b005b34801561049557600080fd5b506104b060048036038101906104ab91906123bf565b6109be565b6040516104bd9190611dfc565b60405180910390f35b3480156104d257600080fd5b506104ed60048036038101906104e89190612047565b610a52565b005b60006104fa82610ad8565b9050919050565b6060600080546105109061242e565b80601f016020809104026020016040519081016040528092919081815260200182805461053c9061242e565b80156105895780601f1061055e57610100808354040283529160200191610589565b820191906000526020600020905b81548152906001019060200180831161056c57829003601f168201915b5050505050905090565b600061059e82610b39565b506105a882610bc1565b9050919050565b6105c182826105bc610bfe565b610c06565b5050565b600073ffffffffffffffffffffffffffffffffffffffff168273ffffffffffffffffffffffffffffffffffffffff16036106375760006040517f64a0ae9200000000000000000000000000000000000000000000000000000000815260040161062e9190611f6d565b60405180910390fd5b600061064b8383610646610bfe565b610c18565b90508373ffffffffffffffffffffffffffffffffffffffff168173ffffffffffffffffffffffffffffffffffffffff16146106c1578382826040517f64283d7b0000000000000000000000000000000000000000000000000000000081526004016106b89392919061245f565b60405180910390fd5b50505050565b6106cf610e32565b6106d7610836565b73ffffffffffffffffffffffffffffffffffffffff166108fc479081150290604051600060405180830381858888f1935050505015801561071c573d6000803e3d6000fd5b50565b61073a8383836040518060200160405280600081525061094b565b505050565b61075260008261074d610bfe565b610c18565b5050565b600061076182610b39565b9050919050565b60008073ffffffffffffffffffffffffffffffffffffffff168273ffffffffffffffffffffffffffffffffffffffff16036107db5760006040517f89c62b640000000000000000000000000000000000000000000000000000000081526004016107d29190611f6d565b60405180910390fd5b600360008373ffffffffffffffffffffffffffffffffffffffff1673ffffffffffffffffffffffffffffffffffffffff168152602001908152602001600020549050919050565b61082a610e32565b6108346000610eb9565b565b6000600760009054906101000a900473ffffffffffffffffffffffffffffffffffffffff16905090565b60606001805461086f9061242e565b80601f016020809104026020016040519081016040528092919081815260200182805461089b9061242e565b80156108e85780601f106108bd576101008083540402835291602001916108e8565b820191906000526020600020905b8154815290600101906020018083116108cb57829003601f168201915b5050505050905090565b60085481565b60006009600083815260200190815260200160002060009054906101000a900473ffffffffffffffffffffffffffffffffffffffff169050919050565b610947610940610bfe565b8383610f7f565b5050565b6109568484846105c5565b610962848484846110ee565b50505050565b6060610973826112a5565b9050919050565b6000600854905061098b83826113b8565b61099581836113d6565b61099f8133611432565b6001600860008282546109b291906124c5565b92505081905550505050565b6000600560008473ffffffffffffffffffffffffffffffffffffffff1673ffffffffffffffffffffffffffffffffffffffff16815260200190815260200160002060008373ffffffffffffffffffffffffffffffffffffffff1673ffffffffffffffffffffffffffffffffffffffff16815260200190815260200160002060009054906101000a900460ff16905092915050565b610a5a610e32565b600073ffffffffffffffffffffffffffffffffffffffff168173ffffffffffffffffffffffffffffffffffffffff1603610acc5760006040517f1e4fbdf7000000000000000000000000000000000000000000000000000000008152600401610ac39190611f6d565b60405180910390fd5b610ad581610eb9565b50565b6000634906490660e01b7bffffffffffffffffffffffffffffffffffffffffffffffffffffffff1916827bffffffffffffffffffffffffffffffffffffffffffffffffffffffff19161480610b325750610b31826114bf565b5b9050919050565b600080610b45836115a1565b9050600073ffffffffffffffffffffffffffffffffffffffff168173ffffffffffffffffffffffffffffffffffffffff1603610bb857826040517f7e273289000000000000000000000000000000000000000000000000000000008152600401610baf9190612083565b60405180910390fd5b80915050919050565b60006004600083815260200190815260200160002060009054906101000a900473ffffffffffffffffffffffffffffffffffffffff169050919050565b600033905090565b610c1383838360016115de565b505050565b600080610c24846115a1565b9050600073ffffffffffffffffffffffffffffffffffffffff168373ffffffffffffffffffffffffffffffffffffffff1614610c6657610c658184866117a3565b5b600073ffffffffffffffffffffffffffffffffffffffff168173ffffffffffffffffffffffffffffffffffffffff1614610cf757610ca86000856000806115de565b6001600360008373ffffffffffffffffffffffffffffffffffffffff1673ffffffffffffffffffffffffffffffffffffffff168152602001908152602001600020600082825403925050819055505b600073ffffffffffffffffffffffffffffffffffffffff168573ffffffffffffffffffffffffffffffffffffffff1614610d7a576001600360008773ffffffffffffffffffffffffffffffffffffffff1673ffffffffffffffffffffffffffffffffffffffff168152602001908152602001600020600082825401925050819055505b846002600086815260200190815260200160002060006101000a81548173ffffffffffffffffffffffffffffffffffffffff021916908373ffffffffffffffffffffffffffffffffffffffff160217905550838573ffffffffffffffffffffffffffffffffffffffff168273ffffffffffffffffffffffffffffffffffffffff167fddf252ad1be2c89b69c2b068fc378daa952ba7f163c4a11628f55a4df523b3ef60405160405180910390a4809150509392505050565b610e3a610bfe565b73ffffffffffffffffffffffffffffffffffffffff16610e58610836565b73ffffffffffffffffffffffffffffffffffffffff1614610eb757610e7b610bfe565b6040517f118cdaa7000000000000000000000000000000000000000000000000000000008152600401610eae9190611f6d565b60405180910390fd5b565b6000600760009054906101000a900473ffffffffffffffffffffffffffffffffffffffff16905081600760006101000a81548173ffffffffffffffffffffffffffffffffffffffff021916908373ffffffffffffffffffffffffffffffffffffffff1602179055508173ffffffffffffffffffffffffffffffffffffffff168173ffffffffffffffffffffffffffffffffffffffff167f8be0079c531659141344cd1fd0a4f28419497f9722a3daafe3b4186f6b6457e060405160405180910390a35050565b600073ffffffffffffffffffffffffffffffffffffffff168273ffffffffffffffffffffffffffffffffffffffff1603610ff057816040517f5b08ba18000000000000000000000000000000000000000000000000000000008152600401610fe79190611f6d565b60405180910390fd5b80600560008573ffffffffffffffffffffffffffffffffffffffff1673ffffffffffffffffffffffffffffffffffffffff16815260200190815260200160002060008473ffffffffffffffffffffffffffffffffffffffff1673ffffffffffffffffffffffffffffffffffffffff16815260200190815260200160002060006101000a81548160ff0219169083151502179055508173ffffffffffffffffffffffffffffffffffffffff168373ffffffffffffffffffffffffffffffffffffffff167f17307eab39ab6107e8899845ad3d59bd9653f200f220920489ca2b5937696c31836040516110e19190611dfc565b60405180910390a3505050565b60008373ffffffffffffffffffffffffffffffffffffffff163b111561129f578273ffffffffffffffffffffffffffffffffffffffff1663150b7a02611132610bfe565b8685856040518563ffffffff1660e01b8152600401611154949392919061254e565b6020604051808303816000875af192505050801561119057506040513d601f19601f8201168201806040525081019061118d91906125af565b60015b611214573d80600081146111c0576040519150601f19603f3d011682016040523d82523d6000602084013e6111c5565b606091505b50600081510361120c57836040517f64a0ae920000000000000000000000000000000000000000000000000000000081526004016112039190611f6d565b60405180910390fd5b805181602001fd5b63150b7a0260e01b7bffffffffffffffffffffffffffffffffffffffffffffffffffffffff1916817bffffffffffffffffffffffffffffffffffffffffffffffffffffffff19161461129d57836040517f64a0ae920000000000000000000000000000000000000000000000000000000081526004016112949190611f6d565b60405180910390fd5b505b50505050565b60606112b082610b39565b5060006006600084815260200190815260200160002080546112d19061242e565b80601f01602080910402602001604051908101604052809291908181526020018280546112fd9061242e565b801561134a5780601f1061131f5761010080835404028352916020019161134a565b820191906000526020600020905b81548152906001019060200180831161132d57829003601f168201915b50505050509050600061135b611867565b905060008151036113705781925050506113b3565b6000825111156113a557808260405160200161138d929190612618565b604051602081830303815290604052925050506113b3565b6113ae8461187e565b925050505b919050565b6113d28282604051806020016040528060008152506118e7565b5050565b806006600084815260200190815260200160002090816113f691906127e8565b507ff8e1a15aba9398e019f0b49df1a4fde98ee17ae345cb5f6b5e2c27f5033e8ce7826040516114269190612083565b60405180910390a15050565b806009600084815260200190815260200160002060006101000a81548173ffffffffffffffffffffffffffffffffffffffff021916908373ffffffffffffffffffffffffffffffffffffffff1602179055507ff8e1a15aba9398e019f0b49df1a4fde98ee17ae345cb5f6b5e2c27f5033e8ce7826040516114b39190612083565b60405180910390a15050565b60007f80ac58cd000000000000000000000000000000000000000000000000000000007bffffffffffffffffffffffffffffffffffffffffffffffffffffffff1916827bffffffffffffffffffffffffffffffffffffffffffffffffffffffff1916148061158a57507f5b5e139f000000000000000000000000000000000000000000000000000000007bffffffffffffffffffffffffffffffffffffffffffffffffffffffff1916827bffffffffffffffffffffffffffffffffffffffffffffffffffffffff1916145b8061159a575061159982611903565b5b9050919050565b60006002600083815260200190815260200160002060009054906101000a900473ffffffffffffffffffffffffffffffffffffffff169050919050565b80806116175750600073ffffffffffffffffffffffffffffffffffffffff168273ffffffffffffffffffffffffffffffffffffffff1614155b1561174b57600061162784610b39565b9050600073ffffffffffffffffffffffffffffffffffffffff168373ffffffffffffffffffffffffffffffffffffffff161415801561169257508273ffffffffffffffffffffffffffffffffffffffff168173ffffffffffffffffffffffffffffffffffffffff1614155b80156116a557506116a381846109be565b155b156116e757826040517fa9fbf51f0000000000000000000000000000000000000000000000000000000081526004016116de9190611f6d565b60405180910390fd5b811561174957838573ffffffffffffffffffffffffffffffffffffffff168273ffffffffffffffffffffffffffffffffffffffff167f8c5be1e5ebec7d5bd14f71427d1e84f3dd0314c0f7b2291e5b200ac8c7c3b92560405160405180910390a45b505b836004600085815260200190815260200160002060006101000a81548173ffffffffffffffffffffffffffffffffffffffff021916908373ffffffffffffffffffffffffffffffffffffffff16021790555050505050565b6117ae83838361196d565b61186257600073ffffffffffffffffffffffffffffffffffffffff168373ffffffffffffffffffffffffffffffffffffffff160361182357806040517f7e27328900000000000000000000000000000000000000000000000000000000815260040161181a9190612083565b60405180910390fd5b81816040517f177e802f0000000000000000000000000000000000000000000000000000000081526004016118599291906128ba565b60405180910390fd5b505050565b606060405180602001604052806000815250905090565b606061188982610b39565b506000611894611867565b905060008151116118b457604051806020016040528060008152506118df565b806118be84611a2e565b6040516020016118cf929190612618565b6040516020818303038152906040525b915050919050565b6118f18383611afc565b6118fe60008484846110ee565b505050565b60007f01ffc9a7000000000000000000000000000000000000000000000000000000007bffffffffffffffffffffffffffffffffffffffffffffffffffffffff1916827bffffffffffffffffffffffffffffffffffffffffffffffffffffffff1916149050919050565b60008073ffffffffffffffffffffffffffffffffffffffff168373ffffffffffffffffffffffffffffffffffffffff1614158015611a2557508273ffffffffffffffffffffffffffffffffffffffff168473ffffffffffffffffffffffffffffffffffffffff1614806119e657506119e584846109be565b5b80611a2457508273ffffffffffffffffffffffffffffffffffffffff16611a0c83610bc1565b73ffffffffffffffffffffffffffffffffffffffff16145b5b90509392505050565b606060006001611a3d84611bf5565b01905060008167ffffffffffffffff811115611a5c57611a5b612114565b5b6040519080825280601f01601f191660200182016040528015611a8e5781602001600182028036833780820191505090505b509050600082602001820190505b600115611af1578080600190039150507f3031323334353637383961626364656600000000000000000000000000000000600a86061a8153600a8581611ae557611ae46128e3565b5b04945060008503611a9c575b819350505050919050565b600073ffffffffffffffffffffffffffffffffffffffff168273ffffffffffffffffffffffffffffffffffffffff1603611b6e5760006040517f64a0ae92000000000000000000000000000000000000000000000000000000008152600401611b659190611f6d565b60405180910390fd5b6000611b7c83836000610c18565b9050600073ffffffffffffffffffffffffffffffffffffffff168173ffffffffffffffffffffffffffffffffffffffff1614611bf05760006040517f73c6ac6e000000000000000000000000000000000000000000000000000000008152600401611be79190611f6d565b60405180910390fd5b505050565b600080600090507a184f03e93ff9f4daa797ed6e38ed64bf6a1f0100000000000000008310611c53577a184f03e93ff9f4daa797ed6e38ed64bf6a1f0100000000000000008381611c4957611c486128e3565b5b0492506040810190505b6d04ee2d6d415b85acef81000000008310611c90576d04ee2d6d415b85acef81000000008381611c8657611c856128e3565b5b0492506020810190505b662386f26fc100008310611cbf57662386f26fc100008381611cb557611cb46128e3565b5b0492506010810190505b6305f5e1008310611ce8576305f5e1008381611cde57611cdd6128e3565b5b0492506008810190505b6127108310611d0d576127108381611d0357611d026128e3565b5b0492506004810190505b60648310611d305760648381611d2657611d256128e3565b5b0492506002810190505b600a8310611d3f576001810190505b80915050919050565b6000604051905090565b600080fd5b600080fd5b60007fffffffff0000000000000000000000000000000000000000000000000000000082169050919050565b611d9181611d5c565b8114611d9c57600080fd5b50565b600081359050611dae81611d88565b92915050565b600060208284031215611dca57611dc9611d52565b5b6000611dd884828501611d9f565b91505092915050565b60008115159050919050565b611df681611de1565b82525050565b6000602082019050611e116000830184611ded565b92915050565b600081519050919050565b600082825260208201905092915050565b60005b83811015611e51578082015181840152602081019050611e36565b60008484015250505050565b6000601f19601f8301169050919050565b6000611e7982611e17565b611e838185611e22565b9350611e93818560208601611e33565b611e9c81611e5d565b840191505092915050565b60006020820190508181036000830152611ec18184611e6e565b905092915050565b6000819050919050565b611edc81611ec9565b8114611ee757600080fd5b50565b600081359050611ef981611ed3565b92915050565b600060208284031215611f1557611f14611d52565b5b6000611f2384828501611eea565b91505092915050565b600073ffffffffffffffffffffffffffffffffffffffff82169050919050565b6000611f5782611f2c565b9050919050565b611f6781611f4c565b82525050565b6000602082019050611f826000830184611f5e565b92915050565b611f9181611f4c565b8114611f9c57600080fd5b50565b600081359050611fae81611f88565b92915050565b60008060408385031215611fcb57611fca611d52565b5b6000611fd985828601611f9f565b9250506020611fea85828601611eea565b9150509250929050565b60008060006060848603121561200d5761200c611d52565b5b600061201b86828701611f9f565b935050602061202c86828701611f9f565b925050604061203d86828701611eea565b9150509250925092565b60006020828403121561205d5761205c611d52565b5b600061206b84828501611f9f565b91505092915050565b61207d81611ec9565b82525050565b60006020820190506120986000830184612074565b92915050565b6120a781611de1565b81146120b257600080fd5b50565b6000813590506120c48161209e565b92915050565b600080604083850312156120e1576120e0611d52565b5b60006120ef85828601611f9f565b9250506020612100858286016120b5565b9150509250929050565b600080fd5b600080fd5b7f4e487b7100000000000000000000000000000000000000000000000000000000600052604160045260246000fd5b61214c82611e5d565b810181811067ffffffffffffffff8211171561216b5761216a612114565b5b80604052505050565b600061217e611d48565b905061218a8282612143565b919050565b600067ffffffffffffffff8211156121aa576121a9612114565b5b6121b382611e5d565b9050602081019050919050565b82818337600083830152505050565b60006121e26121dd8461218f565b612174565b9050828152602081018484840111156121fe576121fd61210f565b5b6122098482856121c0565b509392505050565b600082601f8301126122265761222561210a565b5b81356122368482602086016121cf565b91505092915050565b6000806000806080858703121561225957612258611d52565b5b600061226787828801611f9f565b945050602061227887828801611f9f565b935050604061228987828801611eea565b925050606085013567ffffffffffffffff8111156122aa576122a9611d57565b5b6122b687828801612211565b91505092959194509250565b600067ffffffffffffffff8211156122dd576122dc612114565b5b6122e682611e5d565b9050602081019050919050565b6000612306612301846122c2565b612174565b9050828152602081018484840111156123225761232161210f565b5b61232d8482856121c0565b509392505050565b600082601f83011261234a5761234961210a565b5b813561235a8482602086016122f3565b91505092915050565b6000806040838503121561237a57612379611d52565b5b600061238885828601611f9f565b925050602083013567ffffffffffffffff8111156123a9576123a8611d57565b5b6123b585828601612335565b9150509250929050565b600080604083850312156123d6576123d5611d52565b5b60006123e485828601611f9f565b92505060206123f585828601611f9f565b9150509250929050565b7f4e487b7100000000000000000000000000000000000000000000000000000000600052602260045260246000fd5b6000600282049050600182168061244657607f821691505b602082108103612459576124586123ff565b5b50919050565b60006060820190506124746000830186611f5e565b6124816020830185612074565b61248e6040830184611f5e565b949350505050565b7f4e487b7100000000000000000000000000000000000000000000000000000000600052601160045260246000fd5b60006124d082611ec9565b91506124db83611ec9565b92508282019050808211156124f3576124f2612496565b5b92915050565b600081519050919050565b600082825260208201905092915050565b6000612520826124f9565b61252a8185612504565b935061253a818560208601611e33565b61254381611e5d565b840191505092915050565b60006080820190506125636000830187611f5e565b6125706020830186611f5e565b61257d6040830185612074565b818103606083015261258f8184612515565b905095945050505050565b6000815190506125a981611d88565b92915050565b6000602082840312156125c5576125c4611d52565b5b60006125d38482850161259a565b91505092915050565b600081905092915050565b60006125f282611e17565b6125fc81856125dc565b935061260c818560208601611e33565b80840191505092915050565b600061262482856125e7565b915061263082846125e7565b91508190509392505050565b60008190508160005260206000209050919050565b60006020601f8301049050919050565b600082821b905092915050565b60006008830261269e7fffffffffffffffffffffffffffffffffffffffffffffffffffffffffffffffff82612661565b6126a88683612661565b95508019841693508086168417925050509392505050565b6000819050919050565b60006126e56126e06126db84611ec9565b6126c0565b611ec9565b9050919050565b6000819050919050565b6126ff836126ca565b61271361270b826126ec565b84845461266e565b825550505050565b600090565b61272861271b565b6127338184846126f6565b505050565b5b818110156127575761274c600082612720565b600181019050612739565b5050565b601f82111561279c5761276d8161263c565b61277684612651565b81016020851015612785578190505b61279961279185612651565b830182612738565b50505b505050565b600082821c905092915050565b60006127bf600019846008026127a1565b1980831691505092915050565b60006127d883836127ae565b9150826002028217905092915050565b6127f182611e17565b67ffffffffffffffff81111561280a57612809612114565b5b612814825461242e565b61281f82828561275b565b600060209050601f8311600181146128525760008415612840578287015190505b61284a85826127cc565b8655506128b2565b601f1984166128608661263c565b60005b8281101561288857848901518255600182019150602085019450602081019050612863565b868310156128a557848901516128a1601f8916826127ae565b8355505b6001600288020188555050505b505050505050565b60006040820190506128cf6000830185611f5e565b6128dc6020830184612074565b9392505050565b7f4e487b7100000000000000000000000000000000000000000000000000000000600052601260045260246000fdfea264697066735822122048301c28f67b0a82b24d104cb2065abacde52fef4ff295487ea202aa25d0f0ce64736f6c63430008140033",
  "linkReferences": {},
  "deployedLinkReferences": {}
}