{
  "_format": "hh-sol-artifact-1",
  "contractName": "MyToken",
  "sourceName": "contracts/sender_nft.sol",
  "abi": [
    {
      "inputs": [
        {
          "internalType": "address",
          "name": "initialOwner",
          "type": "address"
        }
      ],
      "stateMutability": "nonpayable",
      "type": "constructor"
    },
    {
      "inputs": [
        {
          "internalType": "address",
          "name": "sender",
          "type": "address"
        },
        {
          "internalType": "uint256",
          "name": "tokenId",
          "type": "uint256"
        },
        {
          "internalType": "address",
          "name": "owner",
          "type": "address"
        }
      ],
      "name": "ERC721IncorrectOwner",
      "type": "error"
    },
    {
      "inputs": [
        {
          "internalType": "address",
          "name": "operator",
          "type": "address"
        },
        {
          "internalType": "uint256",
          "name": "tokenId",
          "type": "uint256"
        }
      ],
      "name": "ERC721InsufficientApproval",
      "type": "error"
    },
    {
      "inputs": [
        {
          "internalType": "address",
          "name": "approver",
          "type": "address"
        }
      ],
      "name": "ERC721InvalidApprover",
      "type": "error"
    },
    {
      "inputs": [
        {
          "internalType": "address",
          "name": "operator",
          "type": "address"
        }
      ],
      "name": "ERC721InvalidOperator",
      "type": "error"
    },
    {
      "inputs": [
        {
          "internalType": "address",
          "name": "owner",
          "type": "address"
        }
      ],
      "name": "ERC721InvalidOwner",
      "type": "error"
    },
    {
      "inputs": [
        {
          "internalType": "address",
          "name": "receiver",
          "type": "address"
        }
      ],
      "name": "ERC721InvalidReceiver",
      "type": "error"
    },
    {
      "inputs": [
        {
          "internalType": "address",
          "name": "sender",
          "type": "address"
        }
      ],
      "name": "ERC721InvalidSender",
      "type": "error"
    },
    {
      "inputs": [
        {
          "internalType": "uint256",
          "name": "tokenId",
          "type": "uint256"
        }
      ],
      "name": "ERC721NonexistentToken",
      "type": "error"
    },
    {
      "inputs": [
        {
          "internalType": "address",
          "name": "owner",
          "type": "address"
        }
      ],
      "name": "OwnableInvalidOwner",
      "type": "error"
    },
    {
      "inputs": [
        {
          "internalType": "address",
          "name": "account",
          "type": "address"
        }
      ],
      "name": "OwnableUnauthorizedAccount",
      "type": "error"
    },
    {
      "anonymous": false,
      "inputs": [
        {
          "indexed": true,
          "internalType": "address",
          "name": "owner",
          "type": "address"
        },
        {
          "indexed": true,
          "internalType": "address",
          "name": "approved",
          "type": "address"
        },
        {
          "indexed": true,
          "internalType": "uint256",
          "name": "tokenId",
          "type": "uint256"
        }
      ],
      "name": "Approval",
      "type": "event"
    },
    {
      "anonymous": false,
      "inputs": [
        {
          "indexed": true,
          "internalType": "address",
          "name": "owner",
          "type": "address"
        },
        {
          "indexed": true,
          "internalType": "address",
          "name": "operator",
          "type": "address"
        },
        {
          "indexed": false,
          "internalType": "bool",
          "name": "approved",
          "type": "bool"
        }
      ],
      "name": "ApprovalForAll",
      "type": "event"
    },
    {
      "anonymous": false,
      "inputs": [
        {
          "indexed": false,
          "internalType": "uint256",
          "name": "_fromTokenId",
          "type": "uint256"
        },
        {
          "indexed": false,
          "internalType": "uint256",
          "name": "_toTokenId",
          "type": "uint256"
        }
      ],
      "name": "BatchMetadataUpdate",
      "type": "event"
    },
    {
      "anonymous": false,
      "inputs": [
        {
          "indexed": false,
          "internalType": "uint256",
          "name": "_tokenId",
          "type": "uint256"
        }
      ],
      "name": "MetadataUpdate",
      "type": "event"
    },
    {
      "anonymous": false,
      "inputs": [
        {
          "indexed": true,
          "internalType": "address",
          "name": "previousOwner",
          "type": "address"
        },
        {
          "indexed": true,
          "internalType": "address",
          "name": "newOwner",
          "type": "address"
        }
      ],
      "name": "OwnershipTransferred",
      "type": "event"
    },
    {
      "anonymous": false,
      "inputs": [
        {
          "indexed": true,
          "internalType": "address",
          "name": "from",
          "type": "address"
        },
        {
          "indexed": true,
          "internalType": "address",
          "name": "to",
          "type": "address"
        },
        {
          "indexed": true,
          "internalType": "uint256",
          "name": "tokenId",
          "type": "uint256"
        }
      ],
      "name": "Transfer",
      "type": "event"
    },
    {
      "inputs": [
        {
          "internalType": "address",
          "name": "to",
          "type": "address"
        },
        {
          "internalType": "uint256",
          "name": "tokenId",
          "type": "uint256"
        }
      ],
      "name": "approve",
      "outputs": [],
      "stateMutability": "nonpayable",
      "type": "function"
    },
    {
      "inputs": [
        {
          "internalType": "address",
          "name": "owner",
          "type": "address"
        }
      ],
      "name": "balanceOf",
      "outputs": [
        {
          "internalType": "uint256",
          "name": "",
          "type": "uint256"
        }
      ],
      "stateMutability": "view",
      "type": "function"
    },
    {
      "inputs": [
        {
          "internalType": "uint256",
          "name": "tokenId",
          "type": "uint256"
        }
      ],
      "name": "burn",
      "outputs": [],
      "stateMutability": "nonpayable",
      "type": "function"
    },
    {
      "inputs": [
        {
          "internalType": "uint256",
          "name": "tokenId",
          "type": "uint256"
        }
      ],
      "name": "getApproved",
      "outputs": [
        {
          "internalType": "address",
          "name": "",
          "type": "address"
        }
      ],
      "stateMutability": "view",
      "type": "function"
    },
    {
      "inputs": [
        {
          "internalType": "address",
          "name": "owner",
          "type": "address"
        },
        {
          "internalType": "address",
          "name": "operator",
          "type": "address"
        }
      ],
      "name": "isApprovedForAll",
      "outputs": [
        {
          "internalType": "bool",
          "name": "",
          "type": "bool"
        }
      ],
      "stateMutability": "view",
      "type": "function"
    },
    {
      "inputs": [],
      "name": "mintingFee",
      "outputs": [
        {
          "internalType": "uint256",
          "name": "",
          "type": "uint256"
        }
      ],
      "stateMutability": "view",
      "type": "function"
    },
    {
      "inputs": [],
      "name": "name",
      "outputs": [
        {
          "internalType": "string",
          "name": "",
          "type": "string"
        }
      ],
      "stateMutability": "view",
      "type": "function"
    },
    {
      "inputs": [],
      "name": "owner",
      "outputs": [
        {
          "internalType": "address",
          "name": "",
          "type": "address"
        }
      ],
      "stateMutability": "view",
      "type": "function"
    },
    {
      "inputs": [
        {
          "internalType": "uint256",
          "name": "tokenId",
          "type": "uint256"
        }
      ],
      "name": "ownerOf",
      "outputs": [
        {
          "internalType": "address",
          "name": "",
          "type": "address"
        }
      ],
      "stateMutability": "view",
      "type": "function"
    },
    {
      "inputs": [],
      "name": "renounceOwnership",
      "outputs": [],
      "stateMutability": "nonpayable",
      "type": "function"
    },
    {
      "inputs": [
        {
          "internalType": "address",
          "name": "to",
          "type": "address"
        },
        {
          "internalType": "string",
          "name": "uri",
          "type": "string"
        }
      ],
      "name": "safeMint",
      "outputs": [],
      "stateMutability": "payable",
      "type": "function"
    },
    {
      "inputs": [
        {
          "internalType": "address",
          "name": "from",
          "type": "address"
        },
        {
          "internalType": "address",
          "name": "to",
          "type": "address"
        },
        {
          "internalType": "uint256",
          "name": "tokenId",
          "type": "uint256"
        }
      ],
      "name": "safeTransferFrom",
      "outputs": [],
      "stateMutability": "nonpayable",
      "type": "function"
    },
    {
      "inputs": [
        {
          "internalType": "address",
          "name": "from",
          "type": "address"
        },
        {
          "internalType": "address",
          "name": "to",
          "type": "address"
        },
        {
          "internalType": "uint256",
          "name": "tokenId",
          "type": "uint256"
        },
        {
          "internalType": "bytes",
          "name": "data",
          "type": "bytes"
        }
      ],
      "name": "safeTransferFrom",
      "outputs": [],
      "stateMutability": "nonpayable",
      "type": "function"
    },
    {
      "inputs": [
        {
          "internalType": "address",
          "name": "operator",
          "type": "address"
        },
        {
          "internalType": "bool",
          "name": "approved",
          "type": "bool"
        }
      ],
      "name": "setApprovalForAll",
      "outputs": [],
      "stateMutability": "nonpayable",
      "type": "function"
    },
    {
      "inputs": [
        {
          "internalType": "bytes4",
          "name": "interfaceId",
          "type": "bytes4"
        }
      ],
      "name": "supportsInterface",
      "outputs": [
        {
          "internalType": "bool",
          "name": "",
          "type": "bool"
        }
      ],
      "stateMutability": "view",
      "type": "function"
    },
    {
      "inputs": [],
      "name": "symbol",
      "outputs": [
        {
          "internalType": "string",
          "name": "",
          "type": "string"
        }
      ],
      "stateMutability": "view",
      "type": "function"
    },
    {
      "inputs": [],
      "name": "tokenCount",
      "outputs": [
        {
          "internalType": "uint256",
          "name": "",
          "type": "uint256"
        }
      ],
      "stateMutability": "view",
      "type": "function"
    },
    {
      "inputs": [
        {
          "internalType": "uint256",
          "name": "tokenId",
          "type": "uint256"
        }
      ],
      "name": "tokenSender",
      "outputs": [
        {
          "internalType": "address",
          "name": "",
          "type": "address"
        }
      ],
      "stateMutability": "view",
      "type": "function"
    },
    {
      "inputs": [
        {
          "internalType": "uint256",
          "name": "tokenId",
          "type": "uint256"
        }
      ],
      "name": "tokenURI",
      "outputs": [
        {
          "internalType": "string",
          "name": "",
          "type": "string"
        }
      ],
      "stateMutability": "view",
      "type": "function"
    },
    {
      "inputs": [
        {
          "internalType": "address",
          "name": "from",
          "type": "address"
        },
        {
          "internalType": "address",
          "name": "to",
          "type": "address"
        },
        {
          "internalType": "uint256",
          "name": "tokenId",
          "type": "uint256"
        }
      ],
      "name": "transferFrom",
      "outputs": [],
      "stateMutability": "nonpayable",
      "type": "function"
    },
    {
      "inputs": [
        {
          "internalType": "address",
          "name": "newOwner",
          "type": "address"
        }
      ],
      "name": "transferOwnership",
      "outputs": [],
      "stateMutability": "nonpayable",
      "type": "function"
    },
    {
      "inputs": [],
      "name": "withdraw",
      "outputs": [],
      "stateMutability": "nonpayable",
      "type": "function"
    }
  ],
  "bytecode": "0x608060405266038d7ea4c6800060085560006009553480156200002157600080fd5b506040516200309e3803806200309e833981810160405281019062000047919062000298565b806040518060400160405280600a81526020017f43565665726966696564000000000000000000000000000000000000000000008152506040518060400160405280600381526020017f43565600000000000000000000000000000000000000000000000000000000008152508160009081620000c5919062000544565b508060019081620000d7919062000544565b505050600073ffffffffffffffffffffffffffffffffffffffff168173ffffffffffffffffffffffffffffffffffffffff16036200014f5760006040517f1e4fbdf70000000000000000000000000000000000000000000000000000000081526004016200014691906200063c565b60405180910390fd5b62000160816200016860201b60201c565b505062000659565b6000600760009054906101000a900473ffffffffffffffffffffffffffffffffffffffff16905081600760006101000a81548173ffffffffffffffffffffffffffffffffffffffff021916908373ffffffffffffffffffffffffffffffffffffffff1602179055508173ffffffffffffffffffffffffffffffffffffffff168173ffffffffffffffffffffffffffffffffffffffff167f8be0079c531659141344cd1fd0a4f28419497f9722a3daafe3b4186f6b6457e060405160405180910390a35050565b600080fd5b600073ffffffffffffffffffffffffffffffffffffffff82169050919050565b6000620002608262000233565b9050919050565b620002728162000253565b81146200027e57600080fd5b50565b600081519050620002928162000267565b92915050565b600060208284031215620002b157620002b06200022e565b5b6000620002c18482850162000281565b91505092915050565b600081519050919050565b7f4e487b7100000000000000000000000000000000000000000000000000000000600052604160045260246000fd5b7f4e487b7100000000000000000000000000000000000000000000000000000000600052602260045260246000fd5b600060028204905060018216806200034c57607f821691505b60208210810362000362576200036162000304565b5b50919050565b60008190508160005260206000209050919050565b60006020601f8301049050919050565b600082821b905092915050565b600060088302620003cc7fffffffffffffffffffffffffffffffffffffffffffffffffffffffffffffffff826200038d565b620003d886836200038d565b95508019841693508086168417925050509392505050565b6000819050919050565b6000819050919050565b6000620004256200041f6200041984620003f0565b620003fa565b620003f0565b9050919050565b6000819050919050565b620004418362000404565b6200045962000450826200042c565b8484546200039a565b825550505050565b600090565b6200047062000461565b6200047d81848462000436565b505050565b5b81811015620004a5576200049960008262000466565b60018101905062000483565b5050565b601f821115620004f457620004be8162000368565b620004c9846200037d565b81016020851015620004d9578190505b620004f1620004e8856200037d565b83018262000482565b50505b505050565b600082821c905092915050565b60006200051960001984600802620004f9565b1980831691505092915050565b600062000534838362000506565b9150826002028217905092915050565b6200054f82620002ca565b67ffffffffffffffff8111156200056b576200056a620002d5565b5b62000577825462000333565b62000584828285620004a9565b600060209050601f831160018114620005bc5760008415620005a7578287015190505b620005b3858262000526565b86555062000623565b601f198416620005cc8662000368565b60005b82811015620005f657848901518255600182019150602085019450602081019050620005cf565b8683101562000616578489015162000612601f89168262000506565b8355505b6001600288020188555050505b505050505050565b620006368162000253565b82525050565b60006020820190506200065360008301846200062b565b92915050565b612a3580620006696000396000f3fe6080604052600436106101355760003560e01c8063715018a6116100ab578063a22cb4651161006f578063a22cb46514610414578063b88d4fde1461043d578063c87b56dd14610466578063d204c45e146104a3578063e985e9c5146104bf578063f2fde38b146104fc57610135565b8063715018a61461033f5780638da5cb5b1461035657806395d89b41146103815780639f181b5e146103ac5780639fcd2106146103d757610135565b80633ccfd60b116100fd5780633ccfd60b1461023157806342842e0e1461024857806342966c68146102715780635a64ad951461029a5780636352211e146102c557806370a082311461030257610135565b806301ffc9a71461013a57806306fdde0314610177578063081812fc146101a2578063095ea7b3146101df57806323b872dd14610208575b600080fd5b34801561014657600080fd5b50610161600480360381019061015c9190611e35565b610525565b60405161016e9190611e7d565b60405180910390f35b34801561018357600080fd5b5061018c610537565b6040516101999190611f28565b60405180910390f35b3480156101ae57600080fd5b506101c960048036038101906101c49190611f80565b6105c9565b6040516101d69190611fee565b60405180910390f35b3480156101eb57600080fd5b5061020660048036038101906102019190612035565b6105e5565b005b34801561021457600080fd5b5061022f600480360381019061022a9190612075565b6105fb565b005b34801561023d57600080fd5b506102466106fd565b005b34801561025457600080fd5b5061026f600480360381019061026a9190612075565b610755565b005b34801561027d57600080fd5b5061029860048036038101906102939190611f80565b610775565b005b3480156102a657600080fd5b506102af61078c565b6040516102bc91906120d7565b60405180910390f35b3480156102d157600080fd5b506102ec60048036038101906102e79190611f80565b610792565b6040516102f99190611fee565b60405180910390f35b34801561030e57600080fd5b50610329600480360381019061032491906120f2565b6107a4565b60405161033691906120d7565b60405180910390f35b34801561034b57600080fd5b5061035461085e565b005b34801561036257600080fd5b5061036b610872565b6040516103789190611fee565b60405180910390f35b34801561038d57600080fd5b5061039661089c565b6040516103a39190611f28565b60405180910390f35b3480156103b857600080fd5b506103c161092e565b6040516103ce91906120d7565b60405180910390f35b3480156103e357600080fd5b506103fe60048036038101906103f99190611f80565b610934565b60405161040b9190611fee565b60405180910390f35b34801561042057600080fd5b5061043b6004803603810190610436919061214b565b610971565b005b34801561044957600080fd5b50610464600480360381019061045f91906122c0565b610987565b005b34801561047257600080fd5b5061048d60048036038101906104889190611f80565b6109a4565b60405161049a9190611f28565b60405180910390f35b6104bd60048036038101906104b891906123e4565b6109b6565b005b3480156104cb57600080fd5b506104e660048036038101906104e19190612440565b610a3f565b6040516104f39190611e7d565b60405180910390f35b34801561050857600080fd5b50610523600480360381019061051e91906120f2565b610ad3565b005b600061053082610b59565b9050919050565b606060008054610546906124af565b80601f0160208091040260200160405190810160405280929190818152602001828054610572906124af565b80156105bf5780601f10610594576101008083540402835291602001916105bf565b820191906000526020600020905b8154815290600101906020018083116105a257829003601f168201915b5050505050905090565b60006105d482610bba565b506105de82610c42565b9050919050565b6105f782826105f2610c7f565b610c87565b5050565b600073ffffffffffffffffffffffffffffffffffffffff168273ffffffffffffffffffffffffffffffffffffffff160361066d5760006040517f64a0ae920000000000000000000000000000000000000000000000000000000081526004016106649190611fee565b60405180910390fd5b6000610681838361067c610c7f565b610c99565b90508373ffffffffffffffffffffffffffffffffffffffff168173ffffffffffffffffffffffffffffffffffffffff16146106f7578382826040517f64283d7b0000000000000000000000000000000000000000000000000000000081526004016106ee939291906124e0565b60405180910390fd5b50505050565b610705610eb3565b61070d610872565b73ffffffffffffffffffffffffffffffffffffffff166108fc479081150290604051600060405180830381858888f19350505050158015610752573d6000803e3d6000fd5b50565b61077083838360405180602001604052806000815250610987565b505050565b610788600082610783610c7f565b610c99565b5050565b60085481565b600061079d82610bba565b9050919050565b60008073ffffffffffffffffffffffffffffffffffffffff168273ffffffffffffffffffffffffffffffffffffffff16036108175760006040517f89c62b6400000000000000000000000000000000000000000000000000000000815260040161080e9190611fee565b60405180910390fd5b600360008373ffffffffffffffffffffffffffffffffffffffff1673ffffffffffffffffffffffffffffffffffffffff168152602001908152602001600020549050919050565b610866610eb3565b6108706000610f3a565b565b6000600760009054906101000a900473ffffffffffffffffffffffffffffffffffffffff16905090565b6060600180546108ab906124af565b80601f01602080910402602001604051908101604052809291908181526020018280546108d7906124af565b80156109245780601f106108f957610100808354040283529160200191610924565b820191906000526020600020905b81548152906001019060200180831161090757829003601f168201915b5050505050905090565b60095481565b6000600a600083815260200190815260200160002060009054906101000a900473ffffffffffffffffffffffffffffffffffffffff169050919050565b61098361097c610c7f565b8383611000565b5050565b6109928484846105fb565b61099e8484848461116f565b50505050565b60606109af82611326565b9050919050565b6008543410156109fb576040517f08c379a00000000000000000000000000000000000000000000000000000000081526004016109f290612563565b60405180910390fd5b60006009549050610a0c8382611439565b610a168183611457565b610a2081336114b3565b600160096000828254610a3391906125b2565b92505081905550505050565b6000600560008473ffffffffffffffffffffffffffffffffffffffff1673ffffffffffffffffffffffffffffffffffffffff16815260200190815260200160002060008373ffffffffffffffffffffffffffffffffffffffff1673ffffffffffffffffffffffffffffffffffffffff16815260200190815260200160002060009054906101000a900460ff16905092915050565b610adb610eb3565b600073ffffffffffffffffffffffffffffffffffffffff168173ffffffffffffffffffffffffffffffffffffffff1603610b4d5760006040517f1e4fbdf7000000000000000000000000000000000000000000000000000000008152600401610b449190611fee565b60405180910390fd5b610b5681610f3a565b50565b6000634906490660e01b7bffffffffffffffffffffffffffffffffffffffffffffffffffffffff1916827bffffffffffffffffffffffffffffffffffffffffffffffffffffffff19161480610bb35750610bb282611540565b5b9050919050565b600080610bc683611622565b9050600073ffffffffffffffffffffffffffffffffffffffff168173ffffffffffffffffffffffffffffffffffffffff1603610c3957826040517f7e273289000000000000000000000000000000000000000000000000000000008152600401610c3091906120d7565b60405180910390fd5b80915050919050565b60006004600083815260200190815260200160002060009054906101000a900473ffffffffffffffffffffffffffffffffffffffff169050919050565b600033905090565b610c94838383600161165f565b505050565b600080610ca584611622565b9050600073ffffffffffffffffffffffffffffffffffffffff168373ffffffffffffffffffffffffffffffffffffffff1614610ce757610ce6818486611824565b5b600073ffffffffffffffffffffffffffffffffffffffff168173ffffffffffffffffffffffffffffffffffffffff1614610d7857610d2960008560008061165f565b6001600360008373ffffffffffffffffffffffffffffffffffffffff1673ffffffffffffffffffffffffffffffffffffffff168152602001908152602001600020600082825403925050819055505b600073ffffffffffffffffffffffffffffffffffffffff168573ffffffffffffffffffffffffffffffffffffffff1614610dfb576001600360008773ffffffffffffffffffffffffffffffffffffffff1673ffffffffffffffffffffffffffffffffffffffff168152602001908152602001600020600082825401925050819055505b846002600086815260200190815260200160002060006101000a81548173ffffffffffffffffffffffffffffffffffffffff021916908373ffffffffffffffffffffffffffffffffffffffff160217905550838573ffffffffffffffffffffffffffffffffffffffff168273ffffffffffffffffffffffffffffffffffffffff167fddf252ad1be2c89b69c2b068fc378daa952ba7f163c4a11628f55a4df523b3ef60405160405180910390a4809150509392505050565b610ebb610c7f565b73ffffffffffffffffffffffffffffffffffffffff16610ed9610872565b73ffffffffffffffffffffffffffffffffffffffff1614610f3857610efc610c7f565b6040517f118cdaa7000000000000000000000000000000000000000000000000000000008152600401610f2f9190611fee565b60405180910390fd5b565b6000600760009054906101000a900473ffffffffffffffffffffffffffffffffffffffff16905081600760006101000a81548173ffffffffffffffffffffffffffffffffffffffff021916908373ffffffffffffffffffffffffffffffffffffffff1602179055508173ffffffffffffffffffffffffffffffffffffffff168173ffffffffffffffffffffffffffffffffffffffff167f8be0079c531659141344cd1fd0a4f28419497f9722a3daafe3b4186f6b6457e060405160405180910390a35050565b600073ffffffffffffffffffffffffffffffffffffffff168273ffffffffffffffffffffffffffffffffffffffff160361107157816040517f5b08ba180000000000000000000000000000000000000000000000000000000081526004016110689190611fee565b60405180910390fd5b80600560008573ffffffffffffffffffffffffffffffffffffffff1673ffffffffffffffffffffffffffffffffffffffff16815260200190815260200160002060008473ffffffffffffffffffffffffffffffffffffffff1673ffffffffffffffffffffffffffffffffffffffff16815260200190815260200160002060006101000a81548160ff0219169083151502179055508173ffffffffffffffffffffffffffffffffffffffff168373ffffffffffffffffffffffffffffffffffffffff167f17307eab39ab6107e8899845ad3d59bd9653f200f220920489ca2b5937696c31836040516111629190611e7d565b60405180910390a3505050565b60008373ffffffffffffffffffffffffffffffffffffffff163b1115611320578273ffffffffffffffffffffffffffffffffffffffff1663150b7a026111b3610c7f565b8685856040518563ffffffff1660e01b81526004016111d5949392919061263b565b6020604051808303816000875af192505050801561121157506040513d601f19601f8201168201806040525081019061120e919061269c565b60015b611295573d8060008114611241576040519150601f19603f3d011682016040523d82523d6000602084013e611246565b606091505b50600081510361128d57836040517f64a0ae920000000000000000000000000000000000000000000000000000000081526004016112849190611fee565b60405180910390fd5b805181602001fd5b63150b7a0260e01b7bffffffffffffffffffffffffffffffffffffffffffffffffffffffff1916817bffffffffffffffffffffffffffffffffffffffffffffffffffffffff19161461131e57836040517f64a0ae920000000000000000000000000000000000000000000000000000000081526004016113159190611fee565b60405180910390fd5b505b50505050565b606061133182610bba565b506000600660008481526020019081526020016000208054611352906124af565b80601f016020809104026020016040519081016040528092919081815260200182805461137e906124af565b80156113cb5780601f106113a0576101008083540402835291602001916113cb565b820191906000526020600020905b8154815290600101906020018083116113ae57829003601f168201915b5050505050905060006113dc6118e8565b905060008151036113f1578192505050611434565b60008251111561142657808260405160200161140e929190612705565b60405160208183030381529060405292505050611434565b61142f846118ff565b925050505b919050565b611453828260405180602001604052806000815250611968565b5050565b8060066000848152602001908152602001600020908161147791906128d5565b507ff8e1a15aba9398e019f0b49df1a4fde98ee17ae345cb5f6b5e2c27f5033e8ce7826040516114a791906120d7565b60405180910390a15050565b80600a600084815260200190815260200160002060006101000a81548173ffffffffffffffffffffffffffffffffffffffff021916908373ffffffffffffffffffffffffffffffffffffffff1602179055507ff8e1a15aba9398e019f0b49df1a4fde98ee17ae345cb5f6b5e2c27f5033e8ce78260405161153491906120d7565b60405180910390a15050565b60007f80ac58cd000000000000000000000000000000000000000000000000000000007bffffffffffffffffffffffffffffffffffffffffffffffffffffffff1916827bffffffffffffffffffffffffffffffffffffffffffffffffffffffff1916148061160b57507f5b5e139f000000000000000000000000000000000000000000000000000000007bffffffffffffffffffffffffffffffffffffffffffffffffffffffff1916827bffffffffffffffffffffffffffffffffffffffffffffffffffffffff1916145b8061161b575061161a82611984565b5b9050919050565b60006002600083815260200190815260200160002060009054906101000a900473ffffffffffffffffffffffffffffffffffffffff169050919050565b80806116985750600073ffffffffffffffffffffffffffffffffffffffff168273ffffffffffffffffffffffffffffffffffffffff1614155b156117cc5760006116a884610bba565b9050600073ffffffffffffffffffffffffffffffffffffffff168373ffffffffffffffffffffffffffffffffffffffff161415801561171357508273ffffffffffffffffffffffffffffffffffffffff168173ffffffffffffffffffffffffffffffffffffffff1614155b801561172657506117248184610a3f565b155b1561176857826040517fa9fbf51f00000000000000000000000000000000000000000000000000000000815260040161175f9190611fee565b60405180910390fd5b81156117ca57838573ffffffffffffffffffffffffffffffffffffffff168273ffffffffffffffffffffffffffffffffffffffff167f8c5be1e5ebec7d5bd14f71427d1e84f3dd0314c0f7b2291e5b200ac8c7c3b92560405160405180910390a45b505b836004600085815260200190815260200160002060006101000a81548173ffffffffffffffffffffffffffffffffffffffff021916908373ffffffffffffffffffffffffffffffffffffffff16021790555050505050565b61182f8383836119ee565b6118e357600073ffffffffffffffffffffffffffffffffffffffff168373ffffffffffffffffffffffffffffffffffffffff16036118a457806040517f7e27328900000000000000000000000000000000000000000000000000000000815260040161189b91906120d7565b60405180910390fd5b81816040517f177e802f0000000000000000000000000000000000000000000000000000000081526004016118da9291906129a7565b60405180910390fd5b505050565b606060405180602001604052806000815250905090565b606061190a82610bba565b5060006119156118e8565b905060008151116119355760405180602001604052806000815250611960565b8061193f84611aaf565b604051602001611950929190612705565b6040516020818303038152906040525b915050919050565b6119728383611b7d565b61197f600084848461116f565b505050565b60007f01ffc9a7000000000000000000000000000000000000000000000000000000007bffffffffffffffffffffffffffffffffffffffffffffffffffffffff1916827bffffffffffffffffffffffffffffffffffffffffffffffffffffffff1916149050919050565b60008073ffffffffffffffffffffffffffffffffffffffff168373ffffffffffffffffffffffffffffffffffffffff1614158015611aa657508273ffffffffffffffffffffffffffffffffffffffff168473ffffffffffffffffffffffffffffffffffffffff161480611a675750611a668484610a3f565b5b80611aa557508273ffffffffffffffffffffffffffffffffffffffff16611a8d83610c42565b73ffffffffffffffffffffffffffffffffffffffff16145b5b90509392505050565b606060006001611abe84611c76565b01905060008167ffffffffffffffff811115611add57611adc612195565b5b6040519080825280601f01601f191660200182016040528015611b0f5781602001600182028036833780820191505090505b509050600082602001820190505b600115611b72578080600190039150507f3031323334353637383961626364656600000000000000000000000000000000600a86061a8153600a8581611b6657611b656129d0565b5b04945060008503611b1d575b819350505050919050565b600073ffffffffffffffffffffffffffffffffffffffff168273ffffffffffffffffffffffffffffffffffffffff1603611bef5760006040517f64a0ae92000000000000000000000000000000000000000000000000000000008152600401611be69190611fee565b60405180910390fd5b6000611bfd83836000610c99565b9050600073ffffffffffffffffffffffffffffffffffffffff168173ffffffffffffffffffffffffffffffffffffffff1614611c715760006040517f73c6ac6e000000000000000000000000000000000000000000000000000000008152600401611c689190611fee565b60405180910390fd5b505050565b600080600090507a184f03e93ff9f4daa797ed6e38ed64bf6a1f0100000000000000008310611cd4577a184f03e93ff9f4daa797ed6e38ed64bf6a1f0100000000000000008381611cca57611cc96129d0565b5b0492506040810190505b6d04ee2d6d415b85acef81000000008310611d11576d04ee2d6d415b85acef81000000008381611d0757611d066129d0565b5b0492506020810190505b662386f26fc100008310611d4057662386f26fc100008381611d3657611d356129d0565b5b0492506010810190505b6305f5e1008310611d69576305f5e1008381611d5f57611d5e6129d0565b5b0492506008810190505b6127108310611d8e576127108381611d8457611d836129d0565b5b0492506004810190505b60648310611db15760648381611da757611da66129d0565b5b0492506002810190505b600a8310611dc0576001810190505b80915050919050565b6000604051905090565b600080fd5b600080fd5b60007fffffffff0000000000000000000000000000000000000000000000000000000082169050919050565b611e1281611ddd565b8114611e1d57600080fd5b50565b600081359050611e2f81611e09565b92915050565b600060208284031215611e4b57611e4a611dd3565b5b6000611e5984828501611e20565b91505092915050565b60008115159050919050565b611e7781611e62565b82525050565b6000602082019050611e926000830184611e6e565b92915050565b600081519050919050565b600082825260208201905092915050565b60005b83811015611ed2578082015181840152602081019050611eb7565b60008484015250505050565b6000601f19601f8301169050919050565b6000611efa82611e98565b611f048185611ea3565b9350611f14818560208601611eb4565b611f1d81611ede565b840191505092915050565b60006020820190508181036000830152611f428184611eef565b905092915050565b6000819050919050565b611f5d81611f4a565b8114611f6857600080fd5b50565b600081359050611f7a81611f54565b92915050565b600060208284031215611f9657611f95611dd3565b5b6000611fa484828501611f6b565b91505092915050565b600073ffffffffffffffffffffffffffffffffffffffff82169050919050565b6000611fd882611fad565b9050919050565b611fe881611fcd565b82525050565b60006020820190506120036000830184611fdf565b92915050565b61201281611fcd565b811461201d57600080fd5b50565b60008135905061202f81612009565b92915050565b6000806040838503121561204c5761204b611dd3565b5b600061205a85828601612020565b925050602061206b85828601611f6b565b9150509250929050565b60008060006060848603121561208e5761208d611dd3565b5b600061209c86828701612020565b93505060206120ad86828701612020565b92505060406120be86828701611f6b565b9150509250925092565b6120d181611f4a565b82525050565b60006020820190506120ec60008301846120c8565b92915050565b60006020828403121561210857612107611dd3565b5b600061211684828501612020565b91505092915050565b61212881611e62565b811461213357600080fd5b50565b6000813590506121458161211f565b92915050565b6000806040838503121561216257612161611dd3565b5b600061217085828601612020565b925050602061218185828601612136565b9150509250929050565b600080fd5b600080fd5b7f4e487b7100000000000000000000000000000000000000000000000000000000600052604160045260246000fd5b6121cd82611ede565b810181811067ffffffffffffffff821117156121ec576121eb612195565b5b80604052505050565b60006121ff611dc9565b905061220b82826121c4565b919050565b600067ffffffffffffffff82111561222b5761222a612195565b5b61223482611ede565b9050602081019050919050565b82818337600083830152505050565b600061226361225e84612210565b6121f5565b90508281526020810184848401111561227f5761227e612190565b5b61228a848285612241565b509392505050565b600082601f8301126122a7576122a661218b565b5b81356122b7848260208601612250565b91505092915050565b600080600080608085870312156122da576122d9611dd3565b5b60006122e887828801612020565b94505060206122f987828801612020565b935050604061230a87828801611f6b565b925050606085013567ffffffffffffffff81111561232b5761232a611dd8565b5b61233787828801612292565b91505092959194509250565b600067ffffffffffffffff82111561235e5761235d612195565b5b61236782611ede565b9050602081019050919050565b600061238761238284612343565b6121f5565b9050828152602081018484840111156123a3576123a2612190565b5b6123ae848285612241565b509392505050565b600082601f8301126123cb576123ca61218b565b5b81356123db848260208601612374565b91505092915050565b600080604083850312156123fb576123fa611dd3565b5b600061240985828601612020565b925050602083013567ffffffffffffffff81111561242a57612429611dd8565b5b612436858286016123b6565b9150509250929050565b6000806040838503121561245757612456611dd3565b5b600061246585828601612020565b925050602061247685828601612020565b9150509250929050565b7f4e487b7100000000000000000000000000000000000000000000000000000000600052602260045260246000fd5b600060028204905060018216806124c757607f821691505b6020821081036124da576124d9612480565b5b50919050565b60006060820190506124f56000830186611fdf565b61250260208301856120c8565b61250f6040830184611fdf565b949350505050565b7f496e73756666696369656e742066656500000000000000000000000000000000600082015250565b600061254d601083611ea3565b915061255882612517565b602082019050919050565b6000602082019050818103600083015261257c81612540565b9050919050565b7f4e487b7100000000000000000000000000000000000000000000000000000000600052601160045260246000fd5b60006125bd82611f4a565b91506125c883611f4a565b92508282019050808211156125e0576125df612583565b5b92915050565b600081519050919050565b600082825260208201905092915050565b600061260d826125e6565b61261781856125f1565b9350612627818560208601611eb4565b61263081611ede565b840191505092915050565b60006080820190506126506000830187611fdf565b61265d6020830186611fdf565b61266a60408301856120c8565b818103606083015261267c8184612602565b905095945050505050565b60008151905061269681611e09565b92915050565b6000602082840312156126b2576126b1611dd3565b5b60006126c084828501612687565b91505092915050565b600081905092915050565b60006126df82611e98565b6126e981856126c9565b93506126f9818560208601611eb4565b80840191505092915050565b600061271182856126d4565b915061271d82846126d4565b91508190509392505050565b60008190508160005260206000209050919050565b60006020601f8301049050919050565b600082821b905092915050565b60006008830261278b7fffffffffffffffffffffffffffffffffffffffffffffffffffffffffffffffff8261274e565b612795868361274e565b95508019841693508086168417925050509392505050565b6000819050919050565b60006127d26127cd6127c884611f4a565b6127ad565b611f4a565b9050919050565b6000819050919050565b6127ec836127b7565b6128006127f8826127d9565b84845461275b565b825550505050565b600090565b612815612808565b6128208184846127e3565b505050565b5b818110156128445761283960008261280d565b600181019050612826565b5050565b601f8211156128895761285a81612729565b6128638461273e565b81016020851015612872578190505b61288661287e8561273e565b830182612825565b50505b505050565b600082821c905092915050565b60006128ac6000198460080261288e565b1980831691505092915050565b60006128c5838361289b565b9150826002028217905092915050565b6128de82611e98565b67ffffffffffffffff8111156128f7576128f6612195565b5b61290182546124af565b61290c828285612848565b600060209050601f83116001811461293f576000841561292d578287015190505b61293785826128b9565b86555061299f565b601f19841661294d86612729565b60005b8281101561297557848901518255600182019150602085019450602081019050612950565b86831015612992578489015161298e601f89168261289b565b8355505b6001600288020188555050505b505050505050565b60006040820190506129bc6000830185611fdf565b6129c960208301846120c8565b9392505050565b7f4e487b7100000000000000000000000000000000000000000000000000000000600052601260045260246000fdfea2646970667358221220d601eacbdb929cf5e67f334789a47feff5c3a0439c171ac0e5dfb69de7e14ced64736f6c63430008140033",
  "linkReferences": {},
  "deployedLinkReferences": {}
}